{
  "contractName": "Lottery",
  "abi": [
    {
      "inputs": [],
      "stateMutability": "nonpayable",
      "type": "constructor"
    },
    {
      "inputs": [
        {
          "internalType": "uint256",
          "name": "",
          "type": "uint256"
        }
      ],
      "name": "addressesWithBets",
      "outputs": [
        {
          "internalType": "address",
          "name": "",
          "type": "address"
        }
      ],
      "stateMutability": "view",
      "type": "function",
      "constant": true
    },
    {
      "inputs": [
        {
          "internalType": "uint256",
          "name": "",
          "type": "uint256"
        },
        {
          "internalType": "uint256",
          "name": "",
          "type": "uint256"
        }
      ],
      "name": "betsByOption",
      "outputs": [
        {
          "internalType": "address",
          "name": "",
          "type": "address"
        }
      ],
      "stateMutability": "view",
      "type": "function",
      "constant": true
    },
    {
      "inputs": [
        {
          "internalType": "address",
          "name": "",
          "type": "address"
        }
      ],
      "name": "hasPlacedBet",
      "outputs": [
        {
          "internalType": "bool",
          "name": "",
          "type": "bool"
        }
      ],
      "stateMutability": "view",
      "type": "function",
      "constant": true
    },
    {
      "inputs": [],
      "name": "owner",
      "outputs": [
        {
          "internalType": "address",
          "name": "",
          "type": "address"
        }
      ],
      "stateMutability": "view",
      "type": "function",
      "constant": true
    },
    {
      "inputs": [],
      "name": "winningOption",
      "outputs": [
        {
          "internalType": "uint256",
          "name": "",
          "type": "uint256"
        }
      ],
      "stateMutability": "view",
      "type": "function",
      "constant": true
    },
    {
      "inputs": [],
      "name": "resetHasPlacedBet",
      "outputs": [],
      "stateMutability": "nonpayable",
      "type": "function"
    },
    {
      "inputs": [
        {
          "internalType": "uint256",
          "name": "option",
          "type": "uint256"
        }
      ],
      "name": "placeBet",
      "outputs": [],
      "stateMutability": "payable",
      "type": "function",
      "payable": true
    },
    {
      "inputs": [],
      "name": "setRandomNumber",
      "outputs": [],
      "stateMutability": "nonpayable",
      "type": "function"
    },
    {
      "inputs": [],
      "name": "distributeWinnings",
      "outputs": [],
      "stateMutability": "nonpayable",
      "type": "function"
    }
  ],
  "bytecode": "0x60806040526000600155600060025534801561001a57600080fd5b50336000806101000a81548173ffffffffffffffffffffffffffffffffffffffff021916908373ffffffffffffffffffffffffffffffffffffffff1602179055506111308061006a6000396000f3fe6080604052600436106100865760003560e01c80638da5cb5b116100595780638da5cb5b1461013857806397fedfcb146101635780639fde4ef81461017a578063a14b4613146101a5578063ae3dfff7146101e257610086565b806310fe7c481461008b57806311436b56146100a75780633fd0f389146100e45780637d2026cd14610121575b600080fd5b6100a560048036038101906100a09190610a82565b6101f9565b005b3480156100b357600080fd5b506100ce60048036038101906100c99190610b0d565b610517565b6040516100db9190610b55565b60405180910390f35b3480156100f057600080fd5b5061010b60048036038101906101069190610b70565b610537565b6040516101189190610bbf565b60405180910390f35b34801561012d57600080fd5b50610136610585565b005b34801561014457600080fd5b5061014d6107fd565b60405161015a9190610bbf565b60405180910390f35b34801561016f57600080fd5b50610178610821565b005b34801561018657600080fd5b5061018f610908565b60405161019c9190610be9565b60405180910390f35b3480156101b157600080fd5b506101cc60048036038101906101c79190610a82565b61090e565b6040516101d99190610bbf565b60405180910390f35b3480156101ee57600080fd5b506101f761094d565b005b3466b1a2bc2ec500008114610243576040517f08c379a000000000000000000000000000000000000000000000000000000000815260040161023a90610c61565b60405180910390fd5b600460003373ffffffffffffffffffffffffffffffffffffffff1673ffffffffffffffffffffffffffffffffffffffff16815260200190815260200160002060009054906101000a900460ff16156102d0576040517f08c379a00000000000000000000000000000000000000000000000000000000081526004016102c790610ccd565b60405180910390fd5b600182101580156102e2575060038211155b610321576040517f08c379a000000000000000000000000000000000000000000000000000000000815260040161031890610d39565b60405180910390fd5b60036000838152602001908152602001600020339080600181540180825580915050600190039060005260206000200160009091909190916101000a81548173ffffffffffffffffffffffffffffffffffffffff021916908373ffffffffffffffffffffffffffffffffffffffff16021790555034600160008282546103a79190610d88565b925050819055506001600460003373ffffffffffffffffffffffffffffffffffffffff1673ffffffffffffffffffffffffffffffffffffffff16815260200190815260200160002060006101000a81548160ff021916908315150217905550600080600090505b6005805490508110156104a8573373ffffffffffffffffffffffffffffffffffffffff166005828154811061044657610445610dbc565b5b9060005260206000200160009054906101000a900473ffffffffffffffffffffffffffffffffffffffff1673ffffffffffffffffffffffffffffffffffffffff160361049557600191506104a8565b80806104a090610deb565b91505061040e565b5080610512576005339080600181540180825580915050600190039060005260206000200160009091909190916101000a81548173ffffffffffffffffffffffffffffffffffffffff021916908373ffffffffffffffffffffffffffffffffffffffff1602179055505b505050565b60046020528060005260406000206000915054906101000a900460ff1681565b6003602052816000526040600020818154811061055357600080fd5b906000526020600020016000915091509054906101000a900473ffffffffffffffffffffffffffffffffffffffff1681565b60008054906101000a900473ffffffffffffffffffffffffffffffffffffffff1673ffffffffffffffffffffffffffffffffffffffff163373ffffffffffffffffffffffffffffffffffffffff1614610613576040517f08c379a000000000000000000000000000000000000000000000000000000000815260040161060a90610ea5565b60405180910390fd5b600060015411610658576040517f08c379a000000000000000000000000000000000000000000000000000000000815260040161064f90610f11565b60405180910390fd5b600060036000600254815260200190815260200160002080549050116106b3576040517f08c379a00000000000000000000000000000000000000000000000000000000081526004016106aa90610fa3565b60405180910390fd5b60006003600060025481526020019081526020016000208054905090506000816001546106e09190610ff2565b905060005b8281101561079e576000600360006002548152602001908152602001600020828154811061071657610715610dbc565b5b9060005260206000200160009054906101000a900473ffffffffffffffffffffffffffffffffffffffff1690508073ffffffffffffffffffffffffffffffffffffffff166108fc849081150290604051600060405180830381858888f19350505050158015610789573d6000803e3d6000fd5b5050808061079690610deb565b9150506106e5565b50600060018190555060006002819055506000600190505b600381116107f0576003600082815260200190815260200160002060006107dd9190610a09565b80806107e890610deb565b9150506107b6565b506107f961094d565b5050565b60008054906101000a900473ffffffffffffffffffffffffffffffffffffffff1681565b60008054906101000a900473ffffffffffffffffffffffffffffffffffffffff1673ffffffffffffffffffffffffffffffffffffffff163373ffffffffffffffffffffffffffffffffffffffff16146108af576040517f08c379a00000000000000000000000000000000000000000000000000000000081526004016108a690610ea5565b60405180910390fd5b33426002546040516020016108c69392919061108c565b6040516020818303038152906040528051906020012060001c600281905550600160036002546108f691906110c9565b6109009190610d88565b600281905550565b60025481565b6005818154811061091e57600080fd5b906000526020600020016000915054906101000a900473ffffffffffffffffffffffffffffffffffffffff1681565b60005b600580549050811015610a06576000600460006005848154811061097757610976610dbc565b5b9060005260206000200160009054906101000a900473ffffffffffffffffffffffffffffffffffffffff1673ffffffffffffffffffffffffffffffffffffffff1673ffffffffffffffffffffffffffffffffffffffff16815260200190815260200160002060006101000a81548160ff02191690831515021790555080806109fe90610deb565b915050610950565b50565b5080546000825590600052602060002090810190610a279190610a2a565b50565b5b80821115610a43576000816000905550600101610a2b565b5090565b600080fd5b6000819050919050565b610a5f81610a4c565b8114610a6a57600080fd5b50565b600081359050610a7c81610a56565b92915050565b600060208284031215610a9857610a97610a47565b5b6000610aa684828501610a6d565b91505092915050565b600073ffffffffffffffffffffffffffffffffffffffff82169050919050565b6000610ada82610aaf565b9050919050565b610aea81610acf565b8114610af557600080fd5b50565b600081359050610b0781610ae1565b92915050565b600060208284031215610b2357610b22610a47565b5b6000610b3184828501610af8565b91505092915050565b60008115159050919050565b610b4f81610b3a565b82525050565b6000602082019050610b6a6000830184610b46565b92915050565b60008060408385031215610b8757610b86610a47565b5b6000610b9585828601610a6d565b9250506020610ba685828601610a6d565b9150509250929050565b610bb981610acf565b82525050565b6000602082019050610bd46000830184610bb0565b92915050565b610be381610a4c565b82525050565b6000602082019050610bfe6000830184610bda565b92915050565b600082825260208201905092915050565b7f4578636565646564206d6178696d756d20616d6f756e74000000000000000000600082015250565b6000610c4b601783610c04565b9150610c5682610c15565b602082019050919050565b60006020820190508181036000830152610c7a81610c3e565b9050919050565b7f416464726573732068617320616c726561647920706c61636564206120626574600082015250565b6000610cb7602083610c04565b9150610cc282610c81565b602082019050919050565b60006020820190508181036000830152610ce681610caa565b9050919050565b7f496e76616c6964206f7074696f6e000000000000000000000000000000000000600082015250565b6000610d23600e83610c04565b9150610d2e82610ced565b602082019050919050565b60006020820190508181036000830152610d5281610d16565b9050919050565b7f4e487b7100000000000000000000000000000000000000000000000000000000600052601160045260246000fd5b6000610d9382610a4c565b9150610d9e83610a4c565b9250828201905080821115610db657610db5610d59565b5b92915050565b7f4e487b7100000000000000000000000000000000000000000000000000000000600052603260045260246000fd5b6000610df682610a4c565b91507fffffffffffffffffffffffffffffffffffffffffffffffffffffffffffffffff8203610e2857610e27610d59565b5b600182019050919050565b7f4f6e6c7920636f6e7472616374206f776e65722063616e20706572666f726d2060008201527f7468697320616374696f6e000000000000000000000000000000000000000000602082015250565b6000610e8f602b83610c04565b9150610e9a82610e33565b604082019050919050565b60006020820190508181036000830152610ebe81610e82565b9050919050565b7f4e6f2077696e6e696e677320746f206469737472696275746500000000000000600082015250565b6000610efb601983610c04565b9150610f0682610ec5565b602082019050919050565b60006020820190508181036000830152610f2a81610eee565b9050919050565b7f4e6f207061727469636970616e747320666f722077696e6e696e67206f70746960008201527f6f6e000000000000000000000000000000000000000000000000000000000000602082015250565b6000610f8d602283610c04565b9150610f9882610f31565b604082019050919050565b60006020820190508181036000830152610fbc81610f80565b9050919050565b7f4e487b7100000000000000000000000000000000000000000000000000000000600052601260045260246000fd5b6000610ffd82610a4c565b915061100883610a4c565b92508261101857611017610fc3565b5b828204905092915050565b60008160601b9050919050565b600061103b82611023565b9050919050565b600061104d82611030565b9050919050565b61106561106082610acf565b611042565b82525050565b6000819050919050565b61108661108182610a4c565b61106b565b82525050565b60006110988286611054565b6014820191506110a88285611075565b6020820191506110b88284611075565b602082019150819050949350505050565b60006110d482610a4c565b91506110df83610a4c565b9250826110ef576110ee610fc3565b5b82820690509291505056fea2646970667358221220f30bd25da38cd996dd458815886a8e6395996b2309c11dca72f016d6e8bd2a0f64736f6c63430008130033",
  "immutableReferences": {},
  "source": "// SPDX-License-Identifier: MIT\npragma solidity ^0.8.19;\n\ncontract Lottery {\n\n    address public owner;\n    constructor() {\n        owner = msg.sender; // Assign contract deployer as the owner\n    }\n\n    modifier onlyOwner() {\n        require(msg.sender == owner, \"Only contract owner can perform this action\");\n        _;\n    }\n\n    uint256 totalWinnings = 0;\n    uint public winningOption = 0;\n\n    mapping(uint256 => address[]) public betsByOption;\n    mapping(address => bool) public hasPlacedBet;\n    address[] public addressesWithBets;\n\n    function resetHasPlacedBet() public {\n        for (uint i = 0; i < addressesWithBets.length; i++) {\n            hasPlacedBet[addressesWithBets[i]] = false;\n        }\n    }\n\n    modifier maxEther(uint256 amount) {\n        require(amount == 0.05 ether, \"Exceeded maximum amount\");\n        _;\n    }\n\n    modifier onlyOnce() {\n        require(!hasPlacedBet[msg.sender], \"Address has already placed a bet\");\n        _;\n    }\n\n    function placeBet(uint256 option) public payable maxEther(msg.value) onlyOnce {\n        require(option >= 1 && option <= 3, \"Invalid option\");\n\n        betsByOption[option].push(msg.sender);\n        totalWinnings += msg.value;\n\n        hasPlacedBet[msg.sender] = true; // Mark the address as having placed a bet\n\n        bool exists;\n        for (uint i = 0; i < addressesWithBets.length; i++) {\n            if (addressesWithBets[i] == msg.sender) {\n                exists = true;\n                break;\n            }\n        }\n        if (!exists) {\n            addressesWithBets.push(msg.sender); // Add the address to the array if it's not already there\n        }\n    }\n\n    function setRandomNumber() external onlyOwner  {\n        winningOption = uint (keccak256(abi.encodePacked (msg.sender, block.timestamp, winningOption)));\n        winningOption = (winningOption % 3) + 1;\n    }\n\n\n    function distributeWinnings() external onlyOwner {\n        require(totalWinnings > 0, \"No winnings to distribute\");\n        require(betsByOption[winningOption].length > 0, \"No participants for winning option\");\n\n        uint256 totalParticipants = betsByOption[winningOption].length;\n        uint256 winningsPerParticipant = totalWinnings / totalParticipants;\n\n        for (uint256 i = 0; i < totalParticipants; i++) {\n            address payable participant = payable(betsByOption[winningOption][i]);\n            participant.transfer(winningsPerParticipant);\n        }\n\n        totalWinnings = 0;\n        winningOption = 0;\n\n        for (uint256 j = 1; j <= 3; j++) {\n            delete betsByOption[j];\n        }\n        resetHasPlacedBet();\n    }\n}\n",
  "sourcePath": "/home/lukas/Darbalaukis/solidity/contracts/lottery.sol",
  "compiler": {
    "name": "solc",
    "version": "0.8.19+commit.7dd6d404.Emscripten.clang"
  },
  "schemaVersion": "3.4.16",
  "updatedAt": "2023-12-21T02:36:18.884Z",
  "networkType": "ethereum",
  "devdoc": {
    "kind": "dev",
    "methods": {},
    "version": 1
  },
  "userdoc": {
    "kind": "user",
    "methods": {},
    "version": 1
  }
}